:1018000050C084C069C068C067C066C065C064C09D
:1018100063C062C061C060C05FC05EC05DC05CC0CC
:101820005BC05AC059C00600FF0901A1011500267E
:10183000FF007508850195060900B2020185029531
:10184000830900B20201C0090222000101008032B6
:101850000904000001030000000921010100012228
:101860002100070581030800C812011001000000D3
:1018700008C016DF050001010200011003480049FD
:1018800000440042006F006F00740012036F00629A
:10189000006400650076002E0061007400040309F6
:1018A000040011241FBECFE5D4E0DEBFCDBF10E0A1
:1018B000A0E6B0E0E2E9FEE102C005900D92AA3692
:1018C000B107D9F710E0AAE6B0E001C01D92AD392A
:1018D000B107E1F74ED1DCC293CFA82FB92F80E03A
:1018E00090E041E050EA60956F5F58F42D9138EF39
:1018F00082279795879510F0842795273F5FC8F337
:10190000F3CF0895EADF8D939D930895CF93CFB7DA
:10191000CF93C395809BE9F7809B09C0809B07C04C
:10192000809B05C0809B03C0809B01C0A3C0DF9348
:10193000C0918000DD27C957DF4F809B02C0DF9137
:10194000EBCF2F930F931F9300B32FEF00FB20F9E2
:101950004F933F9310B34FEF012700FB21F93BE07A
:1019600031C04E7F012F10B3216028C0102F4D7F52
:101970002260000000B329C04B7F2460012F0000CB
:1019800010B32BC010B3477F28602AC04F7E00B32E
:1019900020612CC04F7D10B320622FC04F7B00B35D
:1019A000206432C0422700B349934FEF0000102754
:1019B00010FB20F910B31570C9F1297F91F20127AE
:1019C00000FB21F900B3237F89F2315058F1102731
:1019D00010FB22F910B3277E79F2012700FB23F9CF
:1019E0002F7C81F200B3102710FB24F92F7971F2BC
:1019F00000C010B3012700FB25F92F7359F200C076
:101A000000B3102710FB26F9223040F200C010B3BB
:101A1000012700FB27F9243028F64F77206810B300
:101A20000000F9CF10E41ABF002719C03B503195D0
:101A3000C31BD04010E41ABF0881033CF9F00B34FB
:101A4000E9F020917E001981110F1213EDCF4A8128
:101A5000441F093641F10D3211F0013E29F7009380
:101A600085003F914F911F910F912F91DF91CAB740
:101A7000C6FD4FCFCF91CFBFCF9118952091850054
:101A8000222379F310918300112331F5343032F1A0
:101A90003093830020937F00109180003BE0311B46
:101AA000309380001BC0009183000130ACF40AE544
:101AB0004F7049F43091600034FD12C00093600013
:101AC000C3E7D0E011C03AE50BC02795A8F4515008
:101AD000A9F4220F0000F9CF4AE503C042ED01C08E
:101AE000432FC4E1D0E032E011B31560909A11BBEE
:101AF00002B320E415E05F93012756E002BB27956F
:101B000020F4515021F4220FF9CF012756E00000B4
:101B10003B5A02BBD0F2279528F4515029F4220FEA
:101B20000000F9CF012756E0279502BB20F4515061
:101B300021F4220FF9CF012756E02991332302BB6C
:101B400021F60A7F10918400110FC651D04002BBCC
:101B500011F010937E0010E41ABF016011B31A7FD8
:101B6000402F4A7F5F9100C000C002BB11BB42BB47
:101B700078CFCFE5D4E0DEBFCDBF88E082BB88E27E
:101B80008A95F1F7939975C181E08BBF82E08BBF95
:101B900020E085B7836085BF8BB780648BBF889A50
:101BA000A89588EB9BE00197F1F72150C9F7889839
:101BB0007894A89540918300942F935097FDFDC091
:101BC00080918000E3E9F0E0E81BF10980917F005B
:101BD0008D3209F099C0983009F0EDC083EC809304
:101BE00073008AE58093600010926C006081962FEC
:101BF000907681819923E9F0893061F48281823085
:101C000029F410926F008FEF90E011C081E0809373
:101C100070000BC0813049F482E690E0909382001E
:101C20008093810087E090E002C080E090E0982FF0
:101C300059C04CE750E0228190937C00882321F426
:101C400090937D0092E04AC0853019F4209384007F
:101C500045C08630B1F5392F8381813021F432E1DE
:101C600089E698E125C0823021F432E287E498E1E8
:101C70001FC0833091F4222321F434E08DE998E1F0
:101C800017C0213021F432E18BE898E111C02230F5
:101C900099F430E18BE798E10BC0813221F439E00F
:101CA00089E598E105C0823239F431E286E298E1B3
:101CB000909382008093810080E480936C00932F46
:101CC00011C0883019F446E850E007C0893019F493
:101CD0002093860003C08A3009F491E0509382007B
:101CE000409381009F3F31F467FD968180E88093A7
:101CF0006C0007C08781882321F48681891708F446
:101D0000982F9093610057C080916C0087FF53C05B
:101D1000DF01692F20916D0030916E0080916F007E
:101D2000882329F4218132811496642F6750860F0D
:101D300080936F00782F707803E011E0C5E0C9014F
:101D40008F739070892B49F4F894F9010093570030
:101D5000E895789407B600FCFDCFF8948D919D919D
:101D60000C01F90110935700E89511247894A9010A
:101D70002E5F3F4FC9018F739070892B49F4F894FF
:101D8000FA01C0935700E895789407B600FCFDCFA0
:101D9000625009F0D4CF30936E0020936D00272F4E
:101DA00033272F3F21F48EE18093600004C022236B
:101DB00011F060936100109283008091600084FFB5
:101DC0003DC0809161008F3FC9F1682F893008F0D4
:101DD00068E0861B809361008091730098E88927F2
:101DE00080937300A4E7B0E06623B9F0962FE091EA
:101DF0008100F091820080916C0086FF06C0849182
:101E00008D9331969150D9F704C081918D93915063
:101E1000E1F7F0938200E09381007727C62F6930C5
:101E200038F484E790E06EDDCC5FCC3028F401C05C
:101E3000CEE18FEF80936100C093600094E180B3A6
:101E4000857031F49150D9F79093840090937E007F
:101E500080917000882359F080916A0090916B0006
:101E6000019790936B0080936A00892B11F0939BEC
:101E7000A0CEF89481E180935700E8951BBE15BE73
:101E800081E08BBF1BBEE0917100F091720009955B
:021E9000FFCF82
:0A1E92005AFF01400000200000008C
:0400000300001800E1
:00000001FF
