:1018000050C087C068C067C066C065C064C063C0A0
:1018100062C061C060C05FC05EC05DC05CC05BC0D4
:101820005AC059C058C00600FF0901A10115002681
:10183000FF007508850195060900B2020185029531
:10184000830900B20201C0090222000101008032B6
:101850000904000001030000000921010100012228
:101860002100070581030800C812011001000000D3
:1018700008C016DF050001010200011003480049FD
:1018800000440042006F006F00740012036F00629A
:10189000006400650076002E0061007400040309F6
:1018A000040011241FBECFE5D4E0DEBFCDBF10E0A1
:1018B000A0E6B0E0E0E4FFE102C005900D92AC3696
:1018C000B107D9F710E0ACE6B0E001C01D92AA3A2A
:1018D000B107E1F7FBC294CFA82FB92F8FEF9FEF8D
:1018E00041E050EA615070F02D9138E0722F782776
:1018F00096958795269570FF02C0842795273A957F
:10190000A9F7F0CF809590950895E6DF8D939D938C
:101910000895CF93CFB7CF93809BFECF809B09C014
:10192000809B07C0809B05C0809B03C0809B01C03B
:101930009EC0DF93C0918D00DD27CC56DF4F809B8A
:1019400002C0DF91EBCF2F930F931F9300B32FEFC4
:1019500000FB20F94F933F9310B34FEF012700FB9B
:1019600021F93BE031C04E7F012F10B3216028C028
:10197000102F4D7F2260000000B329C04B7F2460F0
:10198000012F000010B32BC010B3477F28602AC07E
:101990004F7E00B320612CC04F7D10B320622FC05A
:1019A0004F7B00B3206432C0422700B349934FEF0E
:1019B0000000102710FB20F910B31570A9F1297F42
:1019C00091F2012700FB21F900B3237F89F2315006
:1019D000F0F1102710FB22F910B3277E79F20127CE
:1019E00000FB23F92F7C81F200B3102710FB24F9B0
:1019F0002F7971F200C010B3012700FB25F92F7376
:101A000059F200C000B3102710FB26F9223040F233
:101A100000C010B3012700FB27F9243028F64F77C8
:101A2000206810B30000F9CF3B503195333010E4FB
:101A30001ABFB8F0C31BD0400881033C41F10B34FE
:101A400031F11981412F1F7720918B00121731F44A
:101A5000093691F10D3279F0013E69F02227209389
:101A600092003F914F911F910F912F91DF91CF9154
:101A7000CFBFCF911895009392003F914F911F9146
:101A80000F912F91DF91CAB7C6FD46CFF0CF0091DD
:101A90009200002331F3109190001123A1F534300E
:101AA000A2F13093900000938C0010918D003BE0E8
:101AB000311B30938D0029C00091900001301CF53E
:101AC0000AE547FD09C03091610034FD20C0009354
:101AD0006100C5E7D0E01FC03091600034FD17C041
:101AE00000936000C0E8D0E016C0052710E002BBFC
:101AF0001FC0052722C0052727C005272CC00527A2
:101B000010E002BB33C04AE503C042ED01C0432FE1
:101B1000C4E1D0E032E011B31560909A02B311BB7A
:101B20005F9355E020E820FF052702BB2795179516
:101B30001C3FD8F620FF0527279502BB17951C3FB1
:101B4000C0F620FF05272795179502BB1C3F98F686
:101B500020FF0527279517951C3F02BB70F600C094
:101B6000499120FF052702BB279517951C3F38F6A2
:101B700020FF0527279502BB17951C3F38F520FF4E
:101B800005272795179502BB1C3F10F520FF052759
:101B9000279517951C3F02BBE8F4242F3A9519F6B8
:101BA0000A7F5F9102BB00C010919100C651D040E6
:101BB00011F010938B0010E41ABF016011B31A7F6B
:101BC000402F4A7F02BB11BB42BB4BCF0527D3CF6F
:101BD0000527D8CF0527DDCF1F93CF939091900095
:101BE00019160CF01DC180918D00E0EAF0E0E81BB1
:101BF000F109692F635070E0A0E880918C008D326C
:101C000009F08FC08AE580936100683009F002C155
:101C10003081832F80762181882309F05AC08EE796
:101C200090E070937E00222321F470937F0072E095
:101C30000FC0253021F482818093910068C0263046
:101C400099F5A0EC8381813041F489E698E172E155
:101C500090938F0080938E005AC0823021F487E4E5
:101C600098E172E2F5CF833099F48281882321F4E0
:101C70008DE998E174E0ECCF813019F48BE898E1BC
:101C8000E6CF823009F043C08BE798E170E1E0CF06
:101C9000813221F489E598E179E0DACF8232B9F531
:101CA00086E298E171E2D4CF283019F483E990E01C
:101CB00008C0293021F482818093930028C02A3003
:101CC00011F471E0C5CF2B3011F583EC80938000C7
:101CD0001EC0293041F482818093630070937100AB
:101CE0008FEF90E00DC0213049F484E690E09093AE
:101CF0008F0080938E0087E090E002C080E090E04B
:101D0000782F8F3F21F437FD7681AF7783C08781AD
:101D1000882309F07FC08681871708F07BC0782F61
:101D200079C080916C0087FD75C0DF0180916300F0
:101D3000813019F4809372005FC0823009F05CC07A
:101D400080917100882341F4218112963D914D913B
:101D5000572F692F675008C020916D0030916E0099
:101D600040916F0050917000860F809371006695CE
:101D700013E0C1E075E0C9018F739070892B49F4BD
:101D8000F894F90110935700E895789407B600FC91
:101D9000FDCFF8948D919D910C01F901C0935700EE
:101DA000E895112478942E5F3F4F4F4F5F4FC90144
:101DB0008F739070892B59F4F894C9010297FC0134
:101DC00070935700E895789407B600FCFDCF6150FA
:101DD00009F0D1CF20936D0030936E0040936F00D7
:101DE000509370008091710087FD03C020E030E0C7
:101DF00005C08FEF8093630021E030E07FEF27176D
:101E000031F4209362008EE18093610002C02111C1
:101E100070E0A0E0A0936C007093620010929000BC
:101E20008091610084FF43C0809162008F3F09F47C
:101E30003EC0682F893008F068E0861B80936200FE
:101E40001BE480916C0080FD13EC8F5F80936C002D
:101E5000A6E7B0E0E0918E00F0918F00962F9150B0
:101E600086FF07C09F3F59F084918D933196915022
:101E7000F9CF9F3F21F081918D939150FACFF0934C
:101E80008F00E0938E007727C62F693040F486E7F5
:101E900090E03BDD9C2F9C5FC83028F401C09EE1A0
:101EA0008FEF8093620010937500909361009AE029
:101EB00080B3857011F49150D9F7992321F4909350
:101EC000910090938B00CF911F910895CFE5D4E0BE
:101ED000DEBFCDBF88E082BB839925C081E08BBF88
:101EE00082E08BBF85E081BB8FEFC0E0C150F1F78E
:101EF0008150D9F7C1BB85B7836085BF8BB780643C
:101F00008BBF83EC80938000789483990CC064DE4F
:101F100080917200882329F0CFEF5EDEC150E9F78F
:101F200002C0839BF4CFF89481E180935700E89539
:101F300081E08BBF1BBEE0917300F09174000995A6
:0C1F40005A5AFFFF014000002000000082
:0400000300001800E1
:00000001FF
