:1018000050C084C069C068C067C066C065C064C09D
:1018100063C062C061C060C05FC05EC05DC05CC0CC
:101820005BC05AC059C00600FF0901A1011500267E
:10183000FF007508850195060900B2020185029531
:10184000830900B20201C0090222000101008032B6
:101850000904000001030000000921010100012228
:101860002100070581030800C812011001000000D3
:1018700008C016DF050001010200011003480049FD
:1018800000440042006F006F00740012036F00629A
:10189000006400650076002E0061007400040309F6
:1018A000040011241FBECFE5D4E0DEBFCDBF10E0A1
:1018B000A0E6B0E0EAE7FEE102C005900D92AA368C
:1018C000B107D9F710E0AAE6B0E001C01D92AB392C
:1018D000B107E1F74CD1D0C293CFA82FB92F80E048
:1018E00090E041E050EA60956F5F58F42D9138EF39
:1018F00082279795879510F0842795273F5FC8F337
:10190000F3CF0895EADF8D939D930895CF93CFB7DA
:10191000CF93C395809BE9F7809B09C0809B07C04C
:10192000809B05C0809B03C0809B01C0A3C0DF9348
:10193000C0917E00DD27CB57DF4F809B02C0DF9137
:10194000EBCF2F930F931F9300B32FEF00FB20F9E2
:101950004F933F9310B34FEF012700FB21F93BE07A
:1019600031C04E7F012F10B3216028C0102F4D7F52
:101970002260000000B329C04B7F2460012F0000CB
:1019800010B32BC010B3477F28602AC04F7E00B32E
:1019900020612CC04F7D10B320622FC04F7B00B35D
:1019A000206432C0422700B349934FEF0000102754
:1019B00010FB20F910B31570C9F1297F91F20127AE
:1019C00000FB21F900B3237F89F2315058F1102731
:1019D00010FB22F910B3277E79F2012700FB23F9CF
:1019E0002F7C81F200B3102710FB24F92F7971F2BC
:1019F00000C010B3012700FB25F92F7359F200C076
:101A000000B3102710FB26F9223040F200C010B3BB
:101A1000012700FB27F9243028F64F77206810B300
:101A20000000F9CF10E41ABF002719C03B503195D0
:101A3000C31BD04010E41ABF0881033CF9F00B34FB
:101A4000E9F020917C001981110F1213EDCF4A812A
:101A5000441F093641F10D3211F0013E29F7009380
:101A600083003F914F911F910F912F91DF91CAB742
:101A7000C6FD4FCFCF91CFBFCF9118952091830056
:101A8000222379F310918100112321F5343022F1C2
:101A90003093810020937D0010917E003BE0311B4C
:101AA00030937E0019C00091810001309CF40AE55A
:101AB0004F7081F43091600034FD10C000936000DD
:101AC000C1E7D0E00FC02795A8F45150A9F4220F28
:101AD0000000F9CF4AE503C042ED01C0432FC4E145
:101AE000D0E032E011B31560909A11BB02B320E44C
:101AF00015E05F93012756E002BB279520F4515073
:101B000021F4220FF9CF012756E000003B5A02BB17
:101B1000D0F2279528F4515029F4220F0000F9CF74
:101B2000012756E0279502BB20F4515021F4220FE3
:101B3000F9CF012756E02991332302BB21F60A7F12
:101B400010918200110FC651D04002BB11F01093CA
:101B50007C0010E41ABF016011B31A7F402F4A7F46
:101B60005F9100C000C002BB11BB42BB7ACFCFE582
:101B7000D4E0DEBFCDBF88E082BB88E28A95F1F772
:101B800083996BC1FF24EF2C81E08BBF82E08BBF78
:101B90002F2D85B7836085BF8BB780648BBF889AF4
:101BA000A89588EB9BE00197F1F72150C9F7889839
:101BB0007894A89540918100942F935097FDF8C098
:101BC00080917E00E1E9F0E0E81BF10980917D0061
:101BD0008D3209F099C0983009F0E8C083EC809309
:101BE00071008AE58093600010926A006081962FF0
:101BF000907681819923E9F0893061F48281823085
:101C000029F410926D008FEF90E011C081E0809375
:101C10006E000BC0813049F482E690E09093800022
:101C200080937F0087E090E002C080E090E0982FF2
:101C300059C04AE750E0228190937A00882321F42A
:101C400090937B0092E04AC0853019F42093820083
:101C500045C08630B1F5392F8381813021F432E1DE
:101C600089E698E125C0823021F432E287E498E1E8
:101C70001FC0833091F4222321F434E08DE998E1F0
:101C800017C0213021F432E18BE898E111C02230F5
:101C900099F430E18BE798E10BC0813221F439E00F
:101CA00089E598E105C0823239F431E286E298E1B3
:101CB0009093800080937F0080E480936A00932F4C
:101CC00011C0883019F444E850E007C0893019F495
:101CD0002093840003C08A3009F491E0509380007F
:101CE00040937F009F3F31F467FD968180E88093A9
:101CF0006A0007C08781882321F48681891708F448
:101D0000982F9093610052C080916A0087FF4EC067
:101D1000DF01692F20916B0030916C0080916D0084
:101D2000882329F4218132811496642F6750860F0D
:101D300080936D00782F707803E011E0C5E0822F6A
:101D40008F7349F4F894F90100935700E89578945B
:101D500007B600FCFDCFF8948D919D910C01F9011F
:101D600010935700E89511247894A9012E5F3F4FF6
:101D7000822F8F7349F4F894FA01C0935700E895C5
:101D8000789407B600FCFDCF6250C9F630936C0022
:101D900020936B00272F33272F3F21F48EE1809370
:101DA000600004C0222311F0609361001092810052
:101DB0008091600084FF3DC0809161008F3FC9F138
:101DC000682F893008F068E0861B8093610080915D
:101DD000710098E8892780937100A2E7B0E066233C
:101DE000B9F0962FE0917F00F091800080916A0019
:101DF00086FF06C084918D9331969150D9F704C027
:101E000081918D939150E1F7F0938000E0937F00F2
:101E10007727C62F693038F482E790E073DDCC5F16
:101E2000CC3028F401C0CEE18FEF80936100C093E5
:101E3000600094E180B3857031F49150D9F79093AC
:101E4000820090937C0080916E00882321F0FA94A8
:101E500011F4EA9411F0839BACCEF89481E1809365
:101E60005700E8951BBE15BE81E08BBF1BBEE091FD
:0A1E70006F00F09170000995FFCF9C
:0A1E7A005AFF0140000020000000A4
:0400000300001800E1
:00000001FF
